S00C00006D61696E2E7372656373
S11300000C9434000C9446000C9446000C94460066
S11300100C9446000C9446000C9446000C94460044
S11300200C9446000C9446000C9446000C94460034
S11300300C9446000C9446000C9446000C94460024
S11300400C9446000C9446000C9446000C94460014
S11300500C9446000C9446000C9446000C94460004
S11300600C9446000C94460011241FBECFEFD8E038
S1130070DEBFCDBF21E0A0E0B1E001C01D92A930F8
S1130080B207E1F70E94DF000C941D010C940000FC
S11300901092C50087E68093C40088E08093C10075
S11300A0089587E880937A0010927B000895109257
S11300B07C00EAE7F0E0808180648083808184FFB3
S11300C0FDCF20917900809178003FEF43EC99E0D7
S11300D0315040409040E1F700C00000EAE7F0E012
S11300E090819061908390E0922B08951F93CF9319
S11300F0DF9364E670E00E94F500162FD72FC82F17
S1130100492F69517C4F6F3C774010F480E201C065
S113011080E380930001812F9D2F68EE73E00E949D
S1130120F5009C012D593F4F273C310530F064E622
S113013070E00E94F500605D01C060E2E0E0F1E083
S11301406183812F9D2F64E670E00E94F5002AE010
S113015030E0B9010E94F500605D6283812F9D2F1C
S1130160B9010E94F500805D83838CE284838C2F27
S1130170942FB9010E94F500605D658385E2868352
S11301808AE087831086DF91CF911F910895CF93E2
S1130190DF93FC012081222379F0DC011196E0EC4D
S11301A0F0E0C6ECD0E080E4908195FFFDCF288399
S11301B080832D912111F8CFDF91CF9108950E9472
S11301C051000E9448002FEF83ED90E321508040BE
S11301D09040E1F700C000000E9457000E947600A2
S11301E080E091E00E94C700EECF97FB072E16F443
S11301F0009407D077FD09D00E94090107FC05D0BF
S11302003EF4909581959F4F0895709561957F4F29
S11302100895AA1BBB1B51E107C0AA1FBB1FA61749
S1130220B70710F0A61BB70B881F991F5A95A9F79B
S111023080959095BC01CD010895F894FFCF00
S9030000FC
