S00C00006D61696E2E7372656373
S11300000C9475000C9487000C9487000C94870062
S11300100C9487000C9487000C9487000C94870040
S11300200C9487000C9487000C9487000C94870030
S11300300C9487000C9487000C9487000C94870020
S11300400C9487000C9487000C9487000C94870010
S11300500C9487000C9487000C9487000C94870000
S11300600C9487000C94870007634236B79BD8A78B
S11300701A39685618AEBAAB558C1D3CB7CC5763C9
S1130080BD6DEDFD753EF6177231BF000000803F77
S113009008000000BE922449123EABAAAA2ABECD93
S11300A0CCCC4C3E00000080BEABAAAAAA3E000005
S11300B00000BF000000803F0000000000084178FD
S11300C0D3BB4387D1133D190E3CC3BD4282AD2B34
S11300D03E68EC8276BED98FE1A93E4C80EFFFBE2C
S11300E001C4FF7F3F000000000011241FBECFEFBA
S11300F0D8E0DEBFCDBF21E0A0E0B1E001C01D9299
S1130100A930B207E1F70E9427020C940B060C9465
S113011000009B01215031091216130684F4FC01DE
S1130120E60FF71FDC0180E090E04C9152915D9363
S1130130408301962150310982179307B4F308953F
S1130140EF92FF920F931F93CF93DF938B019A014A
S1130150009799F0FB01C0E0D0E00F2EFAE0EF2EFB
S1130160F12CF02D2196B7010E94E305805D819367
S1130170862F972F0097B1F702C0C0E0D0E0C217D6
S1130180D30764F4F801EC0FFD1FA801420F531FBD
S113019080E38193E417F507E1F7E901BE01C801A3
S11301A00E948900F801EC0FFD1F1082CE01DF913F
S11301B0CF911F910F91FF90EF9008952F923F924E
S11301C04F925F926F927F928F929F92AF92BF9263
S11301D0CF92DF92EF92FF920F931F93CF93DF930F
S11301E04B015C018A01E9010E942D036B017C0132
S11301F040E050E0B801C6010E94A0001C01209715
S1130200A9F1F801E80FF91F8CE28083BE010D2EDD
S1130210000C880B990B0E9465039B01AC0160E004
S113022070E080E291E40E945E042B013C01B6017F
S1130230DD0C880B990B0E9465039B01AC01C50181
S1130240B4010E944E029B01AC018FEF281A380AB8
S1130250020D131DC301B2010E94F1030E942D037C
S1130260DC01CB01AE01B8010E94A000DF91CF9167
S11302701F910F91FF90EF90DF90CF90BF90AF90C0
S11302809F908F907F906F905F904F903F902F90B2
S113029008951092C50088E08093C4008093C10043
S11302A0089587E880937A0010927B00089582E095
S11302B080937C00EAE7F0E0808180648083808121
S11302C084FFFDCF8091780020917900EAE7F0E087
S11302D090819061908390E0922B089510927C001D
S11302E0EAE7F0E0808180648083808184FFFDCF31
S11302F08091780020917900EAE7F0E090819061A4
S1130300908390E0922B0895BC01990F880B990B70
S11303100E94650320E030E040E85AE30E94F103C4
S113032020E030E44CE955E40E94F10320E030E0A1
S113033040E251E40E94BB0222E030E040E051E0A0
S11303400E94DE00E0E0F1E08AE0848315820895F3
S11303501F93CF93DF93BC01990F880B990B0E94D5
S113036065032AE137E64CE151E40E94F1030E945F
S11303702D03CB0164E670E00E94E305C62F472FEE
S1130380182FD92F69517C4F6F3C774040F08C2F48
S1130390942F68EE73E00E94E305605D01C060E2A3
S11303A0609300018C2F942F68EE73E00E94E305A4
S11303B09C01932F2D593F4F273C310530F064E6C3
S11303C070E00E94E305605D01C060E2E0E0F1E0FE
S11303D061838C2F942F64E670E00E94E3052AE089
S11303E030E0B9010E94E305605D62838C2F942F95
S11303F0B9010E94E305805D83838CE28483812FAD
S11304009D2FB9010E94E305605D658385E28683C3
S11304108AE087831086DF91CF911F910895CF934F
S1130420DF93FC012081222379F0DC011196E0ECBA
S1130430F0E0C6ECD0E080E4908195FFFDCF288306
S113044080832D912111F8CFDF91CF9108950E94DF
S113045051010E9449012FEF83E294EF2150804023
S11304609040E1F700C000000E946E010E948401E8
S113047080E091E00E940F022FEF83E294EF21507D
S113048080409040E1F700C000000E9457010E94A4
S1130490A80180E091E00E940F02DDCF5058BB27F5
S11304A0AA270E9466020C94B7030E94A90338F09D
S11304B00E94B00320F039F49F3F19F426F40C9401
S11304C0A6030EF4E095E7FB0C94A003E92F0E9429
S11304D0C80358F3BA17620773078407950720F017
S11304E079F4A6F50C94EA030EF4E0950B2EBA2FDA
S11304F0A02D0B01B90190010C01CA01A001112426
S1130500FF27591B99F0593F50F4503E68F11A16D1
S1130510F040A22F232F342F4427585FF3CF469562
S113052037952795A795F0405395C9F77EF41F1684
S1130530BA0B620B730B840BBAF09150A1F0FF0F4E
S1130540BB1F661F771F881FC2F70EC0BA0F621F3A
S1130550731F841F48F4879577956795B795F7952A
S11305609E3F08F0B0CF9395880F08F09927EE0FBF
S11305709795879508950E94CF020C94B7030E9423
S1130580B00358F00E94A90340F029F45F3F29F01A
S11305900C94A00351110C94EB030C94A6030E9439
S11305A0C80368F39923B1F3552391F3951B550BB5
S11305B0BB27AA2762177307840738F09F5F5F4F32
S11305C0220F331F441FAA1FA9F335D00E2E3AF071
S11305D0E0E832D091505040E695001CCAF72BD089
S11305E0FE2F29D0660F771F881FBB1F26173707DA
S11305F04807AB07B0E809F0BB0B802DBF01FF270C
S113060093585F4F3AF09E3F510578F00C94A00345
S11306100C94EB035F3FE4F3983ED4F3869577950F
S11306206795B795F7959F5FC9F7880F911D9695C4
S1130630879597F90895E1E0660F771F881FBB1F20
S1130640621773078407BA0720F0621B730B840BCD
S1130650BA0BEE1F88F7E09508950E94340368945E
S1130660B1110C94EB0308950E94D00388F09F57B6
S113067098F0B92F9927B751B0F0E1F0660F771FC2
S1130680881F991F1AF0BA95C9F714C0B13091F0B8
S11306900E94EA03B1E008950C94EA03672F782FCF
S11306A08827B85F39F0B93FCCF38695779567957D
S11306B0B395D9F73EF490958095709561957F4FE9
S11306C08F4F9F4F0895E89409C097FB3EF490958F
S11306D08095709561957F4F8F4F9F4F9923A9F017
S11306E0F92F96E9BB279395F695879577956795A6
S11306F0B795F111F8CFFAF4BB0F11F460FF1BC0EA
S11307006F5F7F4F8F4F9F4F16C0882311F096E97C
S113071011C0772321F09EE8872F762F05C066232A
S113072071F096E8862F70E060E02AF09A95660FE3
S1130730771F881FDAF7880F9695879597F908959C
S113074097F99F6780E870E060E008959FEF80EC80
S1130750089500240A941616170618060906089523
S113076000240A9412161306140605060895092E89
S11307700394000C11F4882352F0BB0F40F4BF2BF8
S113078011F460FF04C06F5F7F4F8F4F9F4F089538
S113079057FD9058440F551F59F05F3F71F047952E
S11307A0880F97FB991F61F09F3F79F08795089513
S11307B0121613061406551FF2CF4695F1DF08C032
S11307C0161617061806991FF1CF8695710561054F
S11307D008940895E894BB2766277727CB0197F9F7
S11307E008950E9404040C94B7030E94A90338F0EE
S11307F00E94B00320F0952311F00C94A0030C94F4
S1130800A60311240C94EB030E94C80370F3959F74
S1130810C1F3950F50E0551F629FF001729FBB27F3
S1130820F00DB11D639FAA27F00DB11DAA1F649F8F
S11308306627B00DA11D661F829F2227B00DA11D42
S1130840621F739FB00DA11D621F839FA00D611DC8
S1130850221F749F3327A00D611D231F849F600DE9
S1130860211D822F762F6A2F11249F5750409AF012
S1130870F1F088234AF0EE0FFF1FBB1F661F771F9E
S1130880881F91505040A9F79E3F510580F00C9469
S1130890A0030C94EB035F3FE4F3983ED4F38695F6
S11308A077956795B795F795E7959F5FC1F7FE2B09
S11308B0880F911D9695879597F90895FA01EE0F83
S11308C0FF1F309621053105A1F16115710561F411
S11308D08038BFE39B0749F168949038810561F043
S11308E08038BFEF9B0741F099234AF5FF3FE105AC
S11308F03105210519F1E8940894E795D901AA2353
S113090029F4AB2FBE2FF85FD0F310C0FF5F70F453
S1130910A695E0F7F73950F019F0FF3A38F49F77CD
S11309209F930DD00F9007FC9058089546F00C94B7
S1130930A60360E070E080E89FE308954FE79F77A7
S11309405F934F933F932F930E9459052F913F91AB
S11309504F915F910E94F1030C94B60429F416F0B0
S11309600C94A0030C94EA030C94A6030E94D003F5
S1130970A8F39638A0F707F80F92E8942BE33AEA25
S113098048EB5FE70E9407040F920F920F924DB756
S11309905EB70F920E94A105E8E6F0E00E94E80429
S11309A04F915F91EF91FF91E595EE1FFF1F49F085
S11309B0FE57E0684427EE0F441FFA95E1F741958E
S11309C0550B0E941B050F9007FE0C940F0508950C
S11309D0DF93CF931F930F93FF92EF92DF927B01EC
S11309E08C01689406C0DA2EEF010E940404FE0113
S11309F0E894A5912591359145915591A6F3EF0180
S1130A000E946602FE019701A801DA9469F7DF905B
S1130A10EF90FF900F911F91CF91DF9108959B016B
S1130A20AC0160E070E080E89FE30C94BB020C949E
S1130A30A0030C94D5050E94D003D8F39923C9F3DD
S1130A40940F511DA3F39150504094F059F0882312
S1130A5032F0660F771F881F91505040C1F79E3FB8
S1130A6051052CF7880F911D9695879597F9089550
S1130A705F3FACF0983E9CF0BB27869577956795D1
S1130A80B79508F4B1609395C1F7BB0F58F711F40B
S1130A9060FFE8CF6F5F7F4F8F4F9F4FE3CF0C9482
S1130AA0EB0316F00C94D5050C94A60368940C94EF
S1130AB0A0030E94D003A8F39923C1F3AEF3DF93FC
S1130AC0CF931F930F93FF92C92FDD2788232AF01A
S1130AD02197660F771F881FDAF720E030E040E89F
S1130AE05FEB9FE3883920F0803E38F021968F77C2
S1130AF00E944F02E0E9F0E004C00E944F02EDEBD7
S1130B00F0E00E94E8048B01BE01EC01FB2E6F575C
S1130B1071097595771F880B990B0E94650328E16D
S1130B2032E741E35FE30E940404AF2D9801AE0174
S1130B30FF900F911F91CF91DF910E9466020C9458
S1130B40B703FA01DC01AA0FBB1F9B01AC01BF571D
S1130B5028F4222733274427507820C0B75190F433
S1130B60AB2F0024469537952795011CA395D2F306
S1130B70002071F0220F331F441FB395DAF30ED017
S1130B800C944E0261307105A0E88A07B94630F42E
S1130B909B01AC016627772788279078309621F04F
S1130BA0208331834283538308959F3F31F09150D2
S1130BB020F4879577956795B795880F911D96953D
S1130BC0879597F9089597FB072E16F4009407D09C
S1130BD077FD09D00E94F70507FC05D03EF49095F7
S1130BE081959F4F0895709561957F4F0895AA1B35
S1130BF0BB1B51E107C0AA1FBB1FA617B70710F004
S1130C00A61BB70B881F991F5A95A9F78095909535
S10D0C10BC01CD010895F894FFCF54
S9030000FC
