:100000000C9434000C9446000C9446000C9446006A
:100010000C9446000C9446000C9446000C94460048
:100020000C9446000C9446000C9446000C94460038
:100030000C9446000C9446000C9446000C94460028
:100040000C9446000C9446000C9446000C94460018
:100050000C9446000C9446000C9446000C94460008
:100060000C9446000C94460011241FBECFEFD8E03C
:10007000DEBFCDBF21E0A0E0B1E001C01D92A930FC
:10008000B207E1F70E949C010C942F040C9400002D
:100090009B01215031091216130684F4FC01E60F6E
:1000A000F71FDC0180E090E04C9152915D9340831A
:1000B00001962150310982179307B4F30895CF9226
:1000C000DF92EF92FF920F931F93CF93DF936B0119
:1000D0008A01009799F0EB01E0E0F0E00F2EFAE0E2
:1000E000EF2EF12CF02D3196B7010E940704805DB0
:1000F0008993862F972F0097B1F702C0E0E0F0E0D8
:10010000E017F1075CF4EC0DFD1D9601200F311F87
:1001100080E38193E217F307E1F701C08F01B80193
:10012000C6010E944800E601C00FD11F1882C80115
:10013000DF91CF911F910F91FF90EF90DF90CF90C3
:1001400008954F925F926F927F928F929F92AF929B
:10015000BF92CF92DF92EF92FF920F931F93CF93B4
:10016000DF932B013C015A0189010E94D6026B01E9
:100170007C0140E050E0B501C6010E945F004C01E7
:100180000115110509F442C08CE2F501E80DF91DD5
:1001900080830130110599F0C801CAE0D0E09E01CA
:1001A000220F331FCC0FDD1FCC0FDD1FCC0FDD1F47
:1001B000C20FD31F01978130910589F702C0CAE0B1
:1001C000D0E0B601DD0C880B990B0E940E039B0159
:1001D000AC01C301B2010E94F7016B017C018FEFFA
:1001E000881A980AA80CB91CBE01DD0F880B990B60
:1001F0000E940E03A70196010E949A030E94D60254
:10020000DC01CB01A801B5010E945F00DF91CF9115
:100210001F910F91FF90EF90DF90CF90BF90AF9024
:100220009F908F907F906F905F904F900895109265
:10023000C50088E08093C4008093C10086E080936D
:10024000C200089587E880937A0010927B00089599
:1002500080937C00EAE7F0E0808180648083808185
:1002600084FFFDCF8091780020917900EAE7F0E0EB
:1002700090819061908390E0922B0895BC01990F3A
:10028000880B990B0E940E0320E030E040E85AE30F
:100290000E949A0320E030E44CE955E40E949A035E
:1002A00020E030E040E251E40E94640222E030E0CD
:1002B00040E051E00E94A100E0E0F1E080E28483B0
:1002C0008AEB858383E486838AE08783108608959A
:1002D000BC01990F880B990B0E940E032DE032E3AD
:1002E00048EC5DE30E949A0322E030E040E051E0F8
:1002F0000E94A100E0E0F1E080E2848385E2858352
:100300008AE0868317820895CF93DF93FC012081D2
:10031000222379F0DC011196E0ECF0E0C6ECD0E0AD
:1003200080E4908195FFFDCF288380832D9121115A
:10033000F8CFDF91CF9108950E9422010E9417010A
:10034000C1E0D0E001C02196CE0101972FEF33E24A
:1003500044EF215030404040E1F700C000008230BF
:100360009105F9F018F4892B39F03CC083309105E0
:1003700019F1049761F136C080E090E00E942801F5
:100380000E943E0180E091E00E94840182E090E0C2
:100390000E9428010E94680180E091E00E9484018F
:1003A000D2CF82E090E00E9428010E94680180E0A4
:1003B00091E00E948401C7CF80E090E00E94280174
:1003C0000E943E0180E091E00E948401BCCF82E067
:1003D00090E00E9428010E94680180E091E00E9464
:1003E0008401B1CFC630D1050CF0AACFACCF5058A4
:1003F000BB27AA270E940F020C9460030E9452039D
:1004000038F00E94590320F039F49F3F19F426F484
:100410000C944F030EF4E095E7FB0C944903E92F8D
:100420000E94710358F3BA17620773078407950790
:1004300020F079F4A6F50C9493030EF4E0950B2EBE
:10044000BA2FA02D0B01B90190010C01CA01A00126
:100450001124FF27591B99F0593F50F4503E68F181
:100460001A16F040A22F232F342F4427585FF3CFC2
:10047000469537952795A795F0405395C9F77EF493
:100480001F16BA0B620B730B840BBAF09150A1F0DC
:10049000FF0FBB1F661F771F881FC2F70EC0BA0F62
:1004A000621F731F841F48F4879577956795B795EA
:1004B000F7959E3F08F0B0CF9395880F08F09927E5
:1004C000EE0F9795879508950E9478020C9460032B
:1004D0000E94590358F00E94520340F029F45F3FF4
:1004E00029F00C94490351110C9494030C944F037C
:1004F0000E94710368F39923B1F3552391F3951B7F
:10050000550BBB27AA2762177307840738F09F5F34
:100510005F4F220F331F441FAA1FA9F335D00E2EA1
:100520003AF0E0E832D091505040E695001CCAF70E
:100530002BD0FE2F29D0660F771F881FBB1F2617D1
:1005400037074807AB07B0E809F0BB0B802DBF01A8
:10055000FF2793585F4F3AF09E3F510578F00C9477
:1005600049030C9494035F3FE4F3983ED4F38695DB
:1005700077956795B795F7959F5FC9F7880F911D98
:100580009695879597F90895E1E0660F771F881F84
:10059000BB1F621773078407BA0720F0621B730B37
:1005A000840BBA0BEE1F88F7E09508950E94DD02D8
:1005B0006894B1110C94940308950E94790388F013
:1005C0009F5798F0B92F9927B751B0F0E1F0660F17
:1005D000771F881F991F1AF0BA95C9F714C0B13058
:1005E00091F00E949303B1E008950C949303672F58
:1005F000782F8827B85F39F0B93FCCF38695779587
:100600006795B395D9F73EF490958095709561956F
:100610007F4F8F4F9F4F0895E89409C097FB3EF49A
:1006200090958095709561957F4F8F4F9F4F99233F
:10063000A9F0F92F96E9BB279395F69587957795BD
:100640006795B795F111F8CFFAF4BB0F11F460FF7D
:100650001BC06F5F7F4F8F4F9F4F16C0882311F0D5
:1006600096E911C0772321F09EE8872F762F05C0E9
:10067000662371F096E8862F70E060E02AF09A9584
:10068000660F771F881FDAF7880F9695879597F979
:10069000089597F99F6780E870E060E008959FEF04
:1006A00080EC089500240A94161617061806090609
:1006B000089500240A9412161306140605060895D8
:1006C000092E0394000C11F4882352F0BB0F40F460
:1006D000BF2B11F460FF04C06F5F7F4F8F4F9F4FA0
:1006E000089557FD9058440F551F59F05F3F71F022
:1006F0004795880F97FB991F61F09F3F79F0879589
:100700000895121613061406551FF2CF4695F1DF11
:1007100008C0161617061806991FF1CF86957105A1
:10072000610508940895E894BB2766277727CB01D5
:1007300097F908950E94AD030C9460030E94520340
:1007400038F00E94590320F0952311F00C944903CE
:100750000C944F0311240C9494030E94710370F3C2
:10076000959FC1F3950F50E0551F629FF001729F56
:10077000BB27F00DB11D639FAA27F00DB11DAA1F65
:10078000649F6627B00DA11D661F829F2227B00DB2
:10079000A11D621F739FB00DA11D621F839FA00D3D
:1007A000611D221F749F3327A00D611D231F849F8D
:1007B000600D211D822F762F6A2F11249F575040E4
:1007C0009AF0F1F088234AF0EE0FFF1FBB1F661F5F
:1007D000771F881F91505040A9F79E3F510580F028
:1007E0000C9449030C9494035F3FE4F3983ED4F3D4
:1007F000869577956795B795F795E7959F5FC1F7CC
:10080000FE2B880F911D9695879597F9089597FB74
:10081000072E16F4009407D077FD09D00E941B0420
:1008200007FC05D03EF4909581959F4F08957095F3
:1008300061957F4F0895AA1BBB1B51E107C0AA1FFA
:10084000BB1FA617B70710F0A61BB70B881F991F71
:100850005A95A9F780959095BC01CD010895F8941B
:02086000FFCFC8
:00000001FF
