:100000000C9434000C9446000C9446000C9446006A
:100010000C9446000C9446000C9446000C94460048
:100020000C9446000C9446000C9446000C94460038
:100030000C9446000C9446000C9446000C94460028
:100040000C9446000C9446000C9446000C94460018
:100050000C9446000C9446000C9446000C94460008
:100060000C9446000C94460011241FBECFEFD8E03C
:10007000DEBFCDBF21E0A0E0B1E001C01D92A930FC
:10008000B207E1F70E94D5000C9454010C940000D3
:100090001092C50087E68093C40088E08093C10079
:1000A000089587E880937A0010927B000895EAE72C
:1000B000F0E0808180648083808184FFFDCF809127
:1000C000780020917900EAE7F0E0908190619083D8
:1000D00090E0922B0895EF92FF920F931F93CF938E
:1000E000DF9329EE31E0AC01429FC001439F900DA8
:1000F000529F900D1124BC01990F880B990B28EE8B
:1001000033E040E050E00E94FF008B01E0E0F1E0CE
:100110000F2EF4E6EF2EF12CF02DC901B7010E944D
:10012000EB00605D6083CAE0D0E0BE010E94EB009E
:10013000605D6183C901BE010E94EB00805D828326
:100140008CE28383C801B7010E94EB00605D648389
:10015000BE010E94EB00605D6583C801BE010E9484
:10016000EB00805D86838AE087831086DF91CF91E4
:100170001F910F91FF90EF900895CF93DF93FC01B3
:100180002081222379F0DC011196E0ECF0E0C6EC4E
:10019000D0E080E4908195FFFDCF288380832D916E
:1001A0002111F8CFDF91CF9108950E9451000E9454
:1001B00048002FEF83ED90E3215080409040E1F71D
:1001C00000C000000E9457000E946B0080E091E098
:1001D0000E94BD00EECF97FB072E16F4009407D0C7
:1001E00077FD09D00E941E0107FC05D03EF49095D2
:1001F00081959F4F0895709561957F4F0895052EC5
:1002000097FB1EF400940E94160157FD07D00E9430
:10021000320107FC03D04EF40C9416015095409522
:10022000309521953F4F4F4F5F4F089590958095A2
:10023000709561957F4F8F4F9F4F0895AA1BBB1BF1
:1002400051E107C0AA1FBB1FA617B70710F0A61BD6
:10025000B70B881F991F5A95A9F780959095BC01F7
:10026000CD010895A1E21A2EAA1BBB1BFD010DC0F2
:10027000AA1FBB1FEE1FFF1FA217B307E407F50756
:1002800020F0A21BB30BE40BF50B661F771F881F32
:10029000991F1A9469F760957095809590959B01C8
:0C02A000AC01BD01CF010895F894FFCF20
:00000001FF
