:100000000C9475000C9487000C9487000C94870066
:100010000C9487000C9487000C9487000C94870044
:100020000C9487000C9487000C9487000C94870034
:100030000C9487000C9487000C9487000C94870024
:100040000C9487000C9487000C9487000C94870014
:100050000C9487000C9487000C9487000C94870004
:100060000C9487000C94870007634236B79BD8A78F
:100070001A39685618AEBAAB558C1D3CB7CC5763CD
:10008000BD6DEDFD753EF6177231BF000000803F7B
:1000900008000000BE922449123EABAAAA2ABECD97
:1000A000CCCC4C3E00000080BEABAAAAAA3E000009
:1000B0000000BF000000803F000000000008417801
:1000C000D3BB4387D1133D190E3CC3BD4282AD2B38
:1000D0003E68EC8276BED98FE1A93E4C80EFFFBE30
:1000E00001C4FF7F3F000000000011241FBECFEFBE
:1000F000D8E0DEBFCDBF21E0A0E0B1E001C01D929D
:10010000A930B207E1F70E9430020C9440060C942B
:1001100000009B01215031091216130684F4FC01E2
:10012000E60FF71FDC0180E090E04C9152915D9367
:10013000408301962150310982179307B4F3089543
:10014000EF92FF920F931F93CF93DF938B019A014E
:10015000009799F0FB01C0E0D0E00F2EFAE0EF2EFF
:10016000F12CF02D2196B7010E941806805D819335
:10017000862F972F0097B1F702C0C0E0D0E0C217DA
:10018000D30764F4F801EC0FFD1FA801420F531FC1
:1001900080E38193E417F507E1F7E901BE01C801A7
:1001A0000E948900F801EC0FFD1F1082CE01DF9143
:1001B000CF911F910F91FF90EF9008952F923F9252
:1001C0004F925F926F927F928F929F92AF92BF9267
:1001D000CF92DF92EF92FF920F931F93CF93DF9313
:1001E0004B015C018A01E9010E9462036B017C0101
:1001F00040E050E0B801C6010E94A0001C01209719
:10020000A9F1F801E80FF91F8CE28083BE010D2EE1
:10021000000C880B990B0E949A039B01AC0160E0D3
:1002200070E080E291E40E9493042B013C01B6014E
:10023000DD0C880B990B0E949A039B01AC01C50150
:10024000B4010E9483029B01AC018FEF281A380A87
:10025000020D131DC301B2010E9426040E94620315
:10026000DC01CB01AE01B8010E94A000DF91CF916B
:100270001F910F91FF90EF90DF90CF90BF90AF90C4
:100280009F908F907F906F905F904F903F902F90B6
:1002900008951092C50088E08093C4008093C10047
:1002A00086E08093C200089587E880937A001092D8
:1002B0007B00089582E080937C00EAE7F0E0808193
:1002C00080648083808184FFFDCF809178002091BD
:1002D0007900EAE7F0E090819061908390E0922BC2
:1002E000089510927C00EAE7F0E0808180648083CA
:1002F000808184FFFDCF8091780020917900EAE72A
:10030000F0E090819061908390E0922B0895BC0181
:10031000990F880B990B0E949A0320E030E040E887
:100320005AE30E94260420E030E44CE955E40E94A0
:10033000260420E030E040E251E40E94F00222E096
:1003400030E040E051E00E94DE00E0E0F1E080E2D9
:1003500084838AEB858383E486838AE0878310869F
:1003600008951F93CF93DF93BC01990F880B990BCE
:100370000E949A032AE137E64CE151E40E942604E8
:100380000E946203CB0164E670E00E941806C62F4B
:10039000472F182FD92F69517C4F6F3C774040F081
:1003A0008C2F942F68EE73E00E941806605D01C0E8
:1003B00060E2609300018C2F942F68EE73E00E943E
:1003C00018069C01932F2D593F4F273C310530F0E3
:1003D00064E670E00E941806605D01C060E2E0E043
:1003E000F1E061838C2F942F64E670E00E94180680
:1003F0002AE030E0B9010E941806605D62838C2F0C
:10040000942FB9010E941806805D83838CE2848357
:10041000812F9D2FB9010E941806605D658385E2DA
:1004200086838AE087831086DF91CF911F9108959C
:10043000CF93DF93FC012081222379F0DC01119618
:10044000E0ECF0E0C6ECD0E080E4908195FFFDCFD9
:10045000288380832D912111F8CFDF91CF910895CA
:100460000E9454010E94490101E010E0C02FD12FE9
:1004700001C021969FEF23E284EF915020408040FD
:10048000E1F700C00000CE01019782309105D9F05C
:100490001CF4892B39F032C083309105E9F00497C0
:1004A00021F12CC00E9471010E94870180E091E03F
:1004B0000E9418020E945A010E94B10180E091E05E
:1004C0000E941802D6CF0E945A010E94B10180E01A
:1004D00091E00E941802CDCF0E9471010E94870115
:1004E00080E091E00E941802C4CF0E945A010E944D
:1004F000B10180E091E00E941802BBCFC630D10567
:100500000CF4B7CFB3CF5058BB27AA270E949B0249
:100510000C94EC030E94DE0338F00E94E50320F007
:1005200039F49F3F19F426F40C94DB030EF4E095A4
:10053000E7FB0C94D503E92F0E94FD0358F3BA178B
:10054000620773078407950720F079F4A6F50C94E9
:100550001F040EF4E0950B2EBA2FA02D0B01B9014C
:1005600090010C01CA01A0011124FF27591B99F029
:10057000593F50F4503E68F11A16F040A22F232F35
:10058000342F4427585FF3CF469537952795A79585
:10059000F0405395C9F77EF41F16BA0B620B730B2C
:1005A000840BBAF09150A1F0FF0FBB1F661F771F9D
:1005B000881FC2F70EC0BA0F621F731F841F48F452
:1005C000879577956795B795F7959E3F08F0B0CFDB
:1005D0009395880F08F09927EE0F979587950895C2
:1005E0000E9404030C94EC030E94E50358F00E945F
:1005F000DE0340F029F45F3F29F00C94D50351113C
:100600000C9420040C94DB030E94FD0368F39923EF
:10061000B1F3552391F3951B550BBB27AA276217FE
:100620007307840738F09F5F5F4F220F331F441F0B
:10063000AA1FA9F335D00E2E3AF0E0E832D091503F
:100640005040E695001CCAF72BD0FE2F29D0660F2C
:10065000771F881FBB1F261737074807AB07B0E86F
:1006600009F0BB0B802DBF01FF2793585F4F3AF075
:100670009E3F510578F00C94D5030C9420045F3F05
:10068000E4F3983ED4F3869577956795B795F795FB
:100690009F5FC9F7880F911D9695879597F90895E3
:1006A000E1E0660F771F881FBB1F6217730784077F
:1006B000BA0720F0621B730B840BBA0BEE1F88F78E
:1006C000E09508950E9469036894B1110C94200488
:1006D00008950E94050488F09F5798F0B92F992734
:1006E000B751B0F0E1F0660F771F881F991F1AF01D
:1006F000BA95C9F714C0B13091F00E941F04B1E05F
:1007000008950C941F04672F782F8827B85F39F05D
:10071000B93FCCF3869577956795B395D9F73EF4B5
:1007200090958095709561957F4F8F4F9F4F08955D
:10073000E89409C097FB3EF490958095709561957B
:100740007F4F8F4F9F4F9923A9F0F92F96E9BB2731
:100750009395F695879577956795B795F111F8CFAD
:10076000FAF4BB0F11F460FF1BC06F5F7F4F8F4F18
:100770009F4F16C0882311F096E911C0772321F00E
:100780009EE8872F762F05C0662371F096E8862FA6
:1007900070E060E02AF09A95660F771F881FDAF7FD
:1007A000880F9695879597F9089597F99F6780E840
:1007B00070E060E008959FEF80EC089500240A94B3
:1007C0001616170618060906089500240A9412162C
:1007D0001306140605060895092E0394000C11F45F
:1007E000882352F0BB0F40F4BF2B11F460FF04C00C
:1007F0006F5F7F4F8F4F9F4F089557FD9058440F65
:10080000551F59F05F3F71F04795880F97FB991F6F
:1008100061F09F3F79F0879508951216130614062C
:10082000551FF2CF4695F1DF08C0161617061806B9
:10083000991FF1CF86957105610508940895E89494
:10084000BB2766277727CB0197F908950E943904C3
:100850000C94EC030E94DE0338F00E94E50320F0C4
:10086000952311F00C94D5030C94DB0311240C9404
:1008700020040E94FD0370F3959FC1F3950F50E093
:10088000551F629FF001729FBB27F00DB11D639F42
:10089000AA27F00DB11DAA1F649F6627B00DA11DE8
:1008A000661F829F2227B00DA11D621F739FB00D8E
:1008B000A11D621F839FA00D611D221F749F3327FE
:1008C000A00D611D231F849F600D211D822F762F97
:1008D0006A2F11249F5750409AF0F1F088234AF074
:1008E000EE0FFF1FBB1F661F771F881F91505040E0
:1008F000A9F79E3F510580F00C94D5030C94200479
:100900005F3FE4F3983ED4F3869577956795B79566
:10091000F795E7959F5FC1F7FE2B880F911D969580
:10092000879597F90895FA01EE0FFF1F309621057C
:100930003105A1F16115710561F48038BFE39B07B2
:1009400049F168949038810561F08038BFEF9B07CA
:1009500041F099234AF5FF3FE1053105210519F1E1
:10096000E8940894E795D901AA2329F4AB2FBE2F68
:10097000F85FD0F310C0FF5F70F4A695E0F7F73989
:1009800050F019F0FF3A38F49F779F930DD00F90F5
:1009900007FC9058089546F00C94DB0360E070E08B
:1009A00080E89FE308954FE79F775F934F933F93CE
:1009B0002F930E948E052F913F914F915F910E943E
:1009C00026040C94EB0429F416F00C94D5030C9433
:1009D0001F040C94DB030E940504A8F39638A0F7CB
:1009E00007F80F92E8942BE33AEA48EB5FE70E949E
:1009F0003C040F920F920F924DB75EB70F920E9478
:100A0000D605E8E6F0E00E941D054F915F91EF9159
:100A1000FF91E595EE1FFF1F49F0FE57E068442760
:100A2000EE0F441FFA95E1F74195550B0E945005D2
:100A30000F9007FE0C9444050895DF93CF931F9306
:100A40000F93FF92EF92DF927B018C01689406C0B6
:100A5000DA2EEF010E943904FE01E894A591259158
:100A6000359145915591A6F3EF010E949B02FE013D
:100A70009701A801DA9469F7DF90EF90FF900F914A
:100A80001F91CF91DF9108959B01AC0160E070E070
:100A900080E89FE30C94F0020C94D5030C940A06B2
:100AA0000E940504D8F39923C9F3940F511DA3F3B1
:100AB0009150504094F059F0882332F0660F771F20
:100AC000881F91505040C1F79E3F51052CF7880F69
:100AD000911D9695879597F908955F3FACF0983EE4
:100AE0009CF0BB27869577956795B79508F4B1601C
:100AF0009395C1F7BB0F58F711F460FFE8CF6F5F14
:100B00007F4F8F4F9F4FE3CF0C94200416F00C942F
:100B10000A060C94DB0368940C94D5030E94050428
:100B2000A8F39923C1F3AEF3DF93CF931F930F93F1
:100B3000FF92C92FDD2788232AF02197660F771FA0
:100B4000881FDAF720E030E040E85FEB9FE3883968
:100B500020F0803E38F021968F770E948402E0E9F1
:100B6000F0E004C00E948402EDEBF0E00E941D055D
:100B70008B01BE01EC01FB2E6F5771097595771F34
:100B8000880B990B0E949A0328E132E741E35FE367
:100B90000E943904AF2D9801AE01FF900F911F9173
:100BA000CF91DF910E949B020C94EC03FA01DC01CF
:100BB000AA0FBB1F9B01AC01BF5728F42227332784
:100BC0004427507820C0B75190F4AB2F00244695AD
:100BD00037952795011CA395D2F3002071F0220FC1
:100BE000331F441FB395DAF30ED00C9483026130A7
:100BF0007105A0E88A07B94630F49B01AC0166276D
:100C0000772788279078309621F02083318342839C
:100C1000538308959F3F31F0915020F48795779545
:100C20006795B795880F911D9695879597F90895C3
:100C300097FB072E16F4009407D077FD09D00E9489
:100C40002C0607FC05D03EF4909581959F4F0895A2
:100C5000709561957F4F0895AA1BBB1B51E107C09A
:100C6000AA1FBB1FA617B70710F0A61BB70B881F3C
:100C7000991F5A95A9F780959095BC01CD010895CB
:040C8000F894FFCF16
:00000001FF
